:020000041000EA
:1000000000B5324B212058609868022188439860DF
:10001000D860186158612E4B002199600221596106
:100020000121F02299502B49196001219960352056
:1000300000F044F80222904214D00621196600F024
:1000400034F8196E01211966002018661A6600F04E
:100050002CF8196E196E196E052000F02FF8012189
:100060000842F9D1002199601B49196000215960AB
:100070001A491B48016001219960EB211966A021F2
:10008000196600F012F800219960164914480160C1
:100090000121996001BC002800D000471248134993
:1000A000086003C880F30888084703B5996A0420EC
:1000B0000142FBD001200142F8D103BD02B5186610
:1000C0001866FFF7F2FF186E186E02BD00000240BE
:1000D000000000180000070000035F00212200005C
:1000E000F4000018222000A00001001008ED00E03C
:1000F00000000000000000000000000074B24E7A12
:1001000000200420F7010010CB010010CD010010E9
:10011000C9010010C9010010C9010010C901001077
:10012000C9010010C9010010C9010010CF01001061
:10013000C9010010C9010010D1010010D301001045
:10014000C1010010C1010010C1010010C101001067
:10015000C1010010C1010010C1010010C101001057
:10016000C1010010C1010010C1010010C101001047
:10017000C1010010C1010010C1010010C101001037
:10018000C1010010C1010010C1010010C101001027
:10019000C1010010C1010010C1010010C101001017
:1001A000C1010010C1010010C1010010C101001007
:1001B000C1010010C1010010C1010010C1010010F7
:1001C000EFF30580103800BE00BE00BE00BE00BECA
:1001D00000BE00BEF2EB8871482E0510742E05108B
:1001E0003802001090A31AE71E481F49086006C88D
:1001F00081F3088810471D480068002801D019487D
:10020000F3E70DA40ECC002902D000F012F8F9E7B4
:100210001749184A002000E001C19142FCD116495B
:100220008847164988471649884700BEFDE701C937
:1002300001C29A42FBD37047742E0510C000002003
:10024000C82600207C540510000004200000042073
:100250007C54051000100420001004200000000051
:10026000704700000000000008ED00E0000000D032
:10027000C8260020EC5B0220054200103903001064
:10028000C5410010F8B5C0460448054B10B583427F
:1002900003D0044B002B00D0984710BDC826002087
:1002A000C82600200000000006480749091A8B10E4
:1002B000C90FC91810B5491003D0044B002B00D04A
:1002C000984710BDC8260020C82600200000000066
:1002D00010B5074C2378002B09D1FFF7D5FF054B4C
:1002E000002B02D0044800E000BF0123237010BDA2
:1002F000582B002000000000B4600410054B10B51E
:10030000002B03D00449054800E000BFFFF7CCFFF5
:1003100010BDC046000000005C2B0020B46004103B
:10032000C368044A1340C3600A32FF321343C360F8
:100330007047C046FBFEFFFF70B59CB004F0BAF8F2
:1003400008F044F9072000F01FFB082000F01CFB18
:10035000092000F019FBD024240680256562802640
:100360007600666280239B0063626561FA20C000AC
:1003700001F0A0FBA561666107F0DAFA002877D1E9
:1003800007A800F0BBF83D493D4C200029F062FB76
:1003900007A800F0B9F9D0231B069E6123680C3B27
:1003A0001A6812190321516018680019FFF7B8FF85
:1003B00004AD01AC2A00210007A800F09BF93149E7
:1003C0002F4829F047FB06001B95049802F0DAFC41
:1003D00002000B00300029F055FB2B4929F03AFBB5
:1003E00006001A95059802F0CDFC02000B003000C3
:1003F00029F048FB254929F02DFB060019950698A0
:1004000002F0C0FC02000B00300029F03BFB204949
:1004100029F020FB05001894019802F0B3FC0200BB
:100420000B00280029F02EFB1A4929F013FB0500C8
:100430001794029802F0A6FC02000B00280029F095
:1004400021FB154929F006FB05001694039802F0DC
:1004500099FC02000B00280029F014FB0F4929F039
:10046000F9FA0A2129F0DCFA642001F023FB9FE766
:100470000B4804F026F801201CB070BDD0600410B9
:10048000703F0020106104101861041020610410F6
:1004900028610410306104103C61041048610410AC
:1004A000B860041000B585B06B46187359730548E1
:1004B00000230093023303AA682107F0F1F905B085
:1004C00000BDC046E01E002070B584B00D001600CF
:1004D0000F226A441070084C012300936821200009
:1004E00007F0DEF90023009333002A006821200082
:1004F00007F0E2F904B070BDE01E002030B583B013
:1005000005002548254907F0A1F90321002000F046
:1005100099F90321012000F095F900220121002022
:1005200000F0AAF900220121012000F0A5F98021A4
:100530006B20FFF7B7FFC82001F0BCFA00216B2049
:10054000FFF7B0FFC82001F0B5FA08211B20FFF724
:10055000A9FF00211C20FFF7A5FF05211A20FFF7A6
:10056000A1FF04211920FFF79DFF6B46DC1D00232E
:100570002370012221007520FFF7A6FF217808488B
:1005800003F0CEFF2378682B02D1280003B030BDE2
:10059000044803F096FFFEE7E01E0020801A0600E4
:1005A0004C6104106861041030B583B00500062268
:1005B00069464320FFF788FF00220AE0530069469E
:1005C000CC5C591C6846415C24022143EB18D9805D
:1005D0000132022AF2DD03B030BD30B583B0050030
:1005E000062269463B20FFF76FFF002309E05A000F
:1005F00069468C5C511C6846415C24022143A95227
:100600000133022BF3D903B030BD000000B583B035
:10061000002906DB022904DC01908900401803B0A0
:1006200000BD034B034A74210348FF3103F0CEFDA4
:100630007C6104109C61041060620410F8B506002F
:100640000F00FFF7B1FF002419E06300F318062044
:10065000185E02F075FB051C30000C302100FFF71E
:10066000D5FF0168281C02F006FB064902F009FBD1
:10067000051C21003800FFF7C9FF05600134022C7A
:10068000E3DDF8BD00008342F8B506000F00FFF778
:10069000A4FF002427E06300985F02F051FB051CD3
:1006A000300018302100FFF7B1FF0168281C02F06C
:1006B000E2FAE221890502F0F8FA051C210038006F
:1006C000FFF7A4FF056021003800FFF79FFF05003A
:1006D000006802F057FB054A054B02F03CF902F0B6
:1006E0001DFA28600134022CD5D9F8BD05A3923A31
:1006F000019D234070B504001500FFF79FFF2900FE
:100700002000FFF7C1FF70BDF0B5DE4657464E46EC
:100710004546E0B589B006000C22002103A802F08E
:10072000D7FB0C220021684602F0D2FB00239B4637
:100730002EE03000FFF738FF6700F31906229B5EBA
:100740009A46210003A8FFF761FF05000368994658
:10075000504602F0F5FA494602F090FA286030005F
:10076000FFF73BFFBB5F994621006846FFF74EFF4E
:10077000050003689846484602F0E2FA414602F056
:100780007DFA28600134022CD3DD01239C46E3442A
:10079000FA23DB009B4501D20024F4E700241EE08D
:1007A000210003A8FFF732FF0068164902F069FA3A
:1007B000051C30000C302100FFF728FF05602100E8
:1007C0006846FFF723FF00680E4902F05AFA051C3D
:1007D000300018302100FFF719FF05600134022CAA
:1007E000DEDD330018330793306A06938D21C90587
:1007F00002F041FA306209B0F0BCBB46B246A946ED
:10080000A046F0BD0000FA4430B507240440A4001F
:10081000C008A14004003C34A400094D615180008F
:100820001B18002A05D08022920194466344196067
:1008300030BDC0229201944663441960F8E7C04677
:100840000040014010B58300084A9A1814684022FD
:10085000544080322240064CA44663441A60C000D3
:10086000044B9C466044416010BDC04604C001403A
:1008700004D001400040014080000C4B9C46604485
:1008800000290ED00823002A0DD004221343026849
:1008900053400C221340802252019446604403606E
:1008A00070470023EFE70022F0E7C04604C0014094
:1008B00070B506000D00141E0BD1D0231B061B685B
:1008C000002B11D0094B220029003000FFF79CFFBC
:1008D00070BD0D2000F016FA0028EED1044B054A39
:1008E0000548BD2103F072FC044BECE730410140A8
:1008F000BC620410608D0410E862041000410140E5
:1009000070B5D0231B061B68094C9D002C59204252
:1009100007D1074D9B0004435C510D2000F02CFAD9
:1009200070BD044B044A0548DB2103F04FFCC04670
:1009300020590020286304102C8D0410E862041054
:1009400010B50400D0231B061A680B4B9200D35835
:1009500018420BD00D2000F01BFBD0231B061B6898
:1009600005499B005A58A2435A5010BD034B044AF4
:100970000448EF2103F02AFC20590020546304109E
:10098000088D0410E862041010B501238340D022C2
:100990001206936293610521FFF754FF10BD00001A
:1009A00010B58023DB05186803051B0D0B4A934225
:1009B00007D10B4B034080229201934207D1000FD5
:1009C00010BD084B084A0948132103F0FFFB084BF0
:1009D000054A0648142103F0F9FBC0462709000028
:1009E00000F0FF0F80630410788D0410A4630410DE
:1009F000E46304100FB400B583B0084803F061FD50
:100A0000049B002B07D005A90191180003F068FD95
:100A1000034803F056FD012003F07EFBF863041049
:100A200064610410EFF3108072B6034B1B68002B57
:100A3000FBD0BFF35F8F70472C0100D0BFF35F8FF7
:100A4000024B00221A6080F3108870472C0100D0FE
:100A5000F8B506000C001500FFF7E4FFE308F718EF
:100A6000F15C07222240012393400B4205D1DBB207
:100A70000B433B70FFF7E2FFF8BD21002800FFF7B2
:100A8000B9FFF0B583B00600019114001F00FFF715
:100A9000C9FF00E00134BC420CD8E308F518F35C50
:100AA0000721214001228A401A42F3D1D2B21A43CF
:100AB0002A7001E001246442FFF7C0FF002C02DB32
:100AC000200003B0F0BD019B002BF9D00898FFF780
:100AD00091FF000070B505000C00FFF7A3FFE308CD
:100AE000EE18EA5C0721214001238B40134204D019
:100AF0009A433270FFF7A2FF70BD034B034A0448CC
:100B0000332103F063FBC046086404108C8D04108D
:100B100028640410054A1078431CDBB21370172BAD
:100B200002D9130010221A707047C046081E002018
:100B300010B582B00100054C054B00931F2318220D
:100B40002000FFF79EFF02B010BDC04610490020F4
:100B500068640410002307E0054A9A189200BFF366
:100B60005F8F0021116001331F2BF5D97047C046FC
:100B700040000034074B9B68103080001950BFF3D1
:100B80005F8FBFF35F8F044B0021196082F31088E1
:100B90007047C04600ED00E0240100D000487047D7
:100BA00000E400E010B5FFF7F9FF002302E0034A7C
:100BB00004C00133072BFAD910BDC0468080808065
:100BC0001F23181A7047000010B50388DA0A1C2A80
:100BD00005D15B055B1502335B00C01810BD034BEC
:100BE000034A8E210348490003F0F0FA846404109C
:100BF000E88D04109C64041010B5091A0B1F0A4AF2
:100C000088180A4A904208D8C90706D45B105B05C9
:100C10005B0D0748184380B210BD064B064A87217A
:100C20000648490003F0D2FAFC070000FE0F00005E
:100C300000E0FFFFDC640410DC8D04109C640410F1
:100C400010B5091A04394A08090B08D14905490D9C
:100C5000064B0B430380064B1343438010BD054BEB
:100C6000054A8B210548490003F0B0FA00F0FFFF68
:100C700000F8FFFF0C650410B88D04109C6404108C
:100C800001238340034A10681840431E9841C0B2B4
:100C90007047C04600E100E0002A05D0044BC022A6
:100CA0005200995019607047014A8023D150FAE7E9
:100CB00000E100E010B50A001F2303400121994024
:100CC0004009FFF7E9FF10BD01238340014A13608B
:100CD0007047C04600E200E0024B9B681030800085
:100CE000C058704700ED00E010B5FFF7F5FF044B6A
:100CF000C31A00202F229A424041C0B210BDC04604
:100D00000C1E002010B5FFF7E7FF002806D0044BAB
:100D1000984201D0012010BD0020FCE70020FAE736
:100D2000C101001070B504000D00EFF3108672B61B
:100D30000C4B1B68002BFBD0BFF35F8F2000FFF72D
:100D4000CBFF094B984201D0A84205D132002900BF
:100D50002000FFF70FFF70BD044B054A0548ED2149
:100D600003F034FA240100D0C10100101C65041006
:100D7000108E04109C640410F0B5DE4657464E46B3
:100D80004546E0B589B0814601911500EFF3108B1F
:100D900072B66F4B1B68002BFBD0BFF35F8F6D4BA0
:100DA00000269E57002E40DB7400A419A4006A4858
:100DB00024180622A256674B1A70684B9A684B4655
:100DC00010339B00D35898461B1A2F2B3BD9644BEA
:100DD000984531D105AF634B3B80634973009A4618
:100DE000981980005C4B984640440230FFF704FF9E
:100DF00078805E4BBB80FF23BB71FD71019B079325
:100E0000330053449B00434407CF07C301231C43D3
:100E1000A0465A4641464846FFF7ACFE09B0F0BC32
:100E2000BB46B246A946A046F0BD514B514ABE2131
:100E30005148490003F0CAF9504B4E4A84214E48AC
:100E4000FF3103F0C3F9012342469A439246101A38
:100E50000C2101F021FB00290FD153460027DA793C
:100E6000AA4212D90621595600290DDB4A00521810
:100E7000920039491F008B18F1E7414B3D4ACA21C6
:100E80003D48490003F0A2F91F00002F2ED005AB0A
:100E90003C4A1A80813A5A800623FB560293002B63
:100EA00017DA394805AB9A469880029A9A71DD7133
:100EB000019A0792381D2100FFF79EFEB880BE718F
:100EC000254B7200921992009B18524613CA13C305
:100ED0009FE7381DFFF778FE010070008019800041
:100EE0001D4BC0180430FFF787FEDBE705AF1D4B35
:100EF0003B801D49730002939B199B00164A904644
:100F00001A0042440392901CFFF776FE7880039A01
:100F1000101D5146FFF770FEB8801C4B52464146EB
:100F2000521A524153431B0DBB71FD71019A079236
:100F3000029B9B199B00434407CF07C3114B5246AA
:100F40001380813B538001231C43A04661E7C046C8
:100F5000240100D0E65B02200C1E002000ED00E022
:100F6000C101001000A1FFFF3C1E002001BDFFFFDA
:100F700054650410F88D04109C6404107C65041002
:100F8000A46504100148000001BD0000AAAA0000E9
:100F9000F0B5CE46474680B583B006000D00EFF3AE
:100FA000108872B64F4B1B68002BFBD0BFF35F8FCE
:100FB0004D4B9A6834001034A300D7584B4B9F42D6
:100FC00007D0AF4200D18AE00197494BFB1A2F2B83
:100FD00009D9424639003000FFF7CCFD03B0C0BC50
:100FE000B946B046F0BD3000FFF74AFE8146002109
:100FF0003000FFF75FFEBFF35F8FEFF3058100293D
:1010000001D08C4211D10123019C9C430020A36894
:101010009D4211D00622A256002A0CDB53009B18D9
:101020009B00334A2000D418F1E7324B324A334850
:10103000334903F0CBF820009D4249D1062565577E
:10104000002D2BDB2A4B6A00521992009B189A68DC
:10105000A260DA79E2719B795BB2A371002B0FDA9F
:101060002848A080224B6A00521992009B18264AF9
:1010700011789971157049463000FFF71BFEA8E7FB
:101080006800401980001A4BC0180430FFF79CFD1F
:101090000100231D1800FFF7AFFDE2E7002912D180
:1010A00000280ED0FF238371184B838016490B78DC
:1010B000A3710F4A164BA41A644163431B0D0B70B6
:1010C000D9E70A4FF2E71349201DFFF7B9FDD2E730
:1010D000114B094A91210948890003F077F8034F21
:1010E00077E7C046240100D000ED00E0C101001008
:1010F0000C1E002028660410C88D04109C64041087
:101100000202000001BD0000E65B022001BDFFFFFE
:10111000AAAA0000461E00205C66041070B50500F7
:101120000C00FFF73BFDAB089B00C21811680323BE
:101130002B40DB00FF20984081439C4021431160FD
:1011400070BD0000F8B5012202432C4BD31A2F2B9F
:1011500028D8EFF30583002B2AD0EFF3108472B662
:10116000274909680029FBD0BFF35F8F234D25492C
:101170000600761B76417143090D4DB222498968FC
:101180009B00C958914219D00021032930D81B4B2C
:101190004A00521892009B189B795BB2AB421DD05B
:1011A0000131F2E7194B1A4A1A481B4903F00EF8AD
:1011B0001A4B174A17481A4903F008F8124A92685E
:1011C0001849D150184B1A7882711D70BFF35F8F88
:1011D0000B4B00221A6084F31088F8BD074B4A00BD
:1011E0005618B6009E19FF27B771104AB280E9E77A
:1011F0000F4B074A07480F4902F0E8FF0C1E00207A
:10120000240100D0AAAA000000ED00E064660410EA
:101210009C8D04109C6404107F0200008C660410F6
:1012200082020000C1010010E65B022001BDFFFF49
:10123000986604109302000010B5FFF7C1FC01008E
:10124000024B1800FFF746FC10BDC046EA5B0220C7
:1012500010B582B00100074C074B00930523002214
:101260002000FFF70EFC002801DB1F23181A02B034
:1012700010BDC046EA5B0220A066041070B50400F1
:101280000E001500FFF746FC0100200000F006F8F4
:10129000A680E580BFF35F8F70BD0000024B9C46C7
:1012A00061448900016070474000003410B50400BB
:1012B000FFF730FC01002000FFF7F0FF01235B4245
:1012C0006360BFF35F8F10BD10B50400FFF722FC11
:1012D00001002000FFF7E2FF01235B42636000236F
:1012E0002372BFF35F8F10BD10B50D4C09E00D4B9D
:1012F0000D4A0E481A2102F069FF2000FFF7D6FFC1
:1013000008340B4B9C4209D22368002BF5D0012BEB
:10131000EDD12000FFF7D8FF0C34F2E710BDC04636
:10132000B8260020BC660410A48E0410DC660410ED
:10133000C8260020034B9C46614489000160BFF32E
:101340005F8F70474000003410B504000120FFF7A4
:10135000EFFB01002000FFF7EDFF10BD30B5846A00
:10136000151B0B1D9B001B581B1B9D4204D3046ABD
:1013700001238B40234202D1043189000A5030BD41
:101380000004084370470000F0B5DE4657464E465D
:101390004546E0B583B0EFF3058303221A40110000
:1013A0000192AC4B9200D35898461B788B4207D1E0
:1013B0000123019A93400093A74B009A1A6019E108
:1013C000A64BA74AA748922102F000FF43465A695C
:1013D0004B465B004B44DB0093469B445B469E6858
:1013E000DF68A14800F048FC801BB941002900DA01
:1013F0000AE1002F60DB5B461C699C4B9C4245D098
:1014000043460820185E5B46598889B2FFF7B8FF4B
:101410005B465969A04704000D0023002B434BD0C5
:10142000002D3DDA30003900001BA9415B46986071
:10143000D96000241C5F002C00DAE5E043465A69BD
:10144000924663001B19DB0053449A68DB68050071
:101450000E00AD1A9E41002E00DAD5E043461C81F5
:1014600047460837BC46634600255D5F002D1DDBFF
:101470006C006419E4005444A268E36806000F009D
:10148000B61A9F41002F11DBA446ECE75B465C696E
:1014900023692000984700280ED065682468BCE7BF
:1014A000714800F0E9FB00196941BFE75B461D8008
:1014B0004B4662461380A7E05B4600229B5E424695
:1014C00013811269EFF3108372B611680029FCD002
:1014D000BFF35F8F42460221525E59460A80424660
:1014E000494651801269BFF35F8F0021116083F379
:1014F000108889E043461969EFF3108372B60A68D1
:10150000002AFCD0BFF35F8F4246928812B2914608
:101510000122524241468A800A69BFF35F8F00214F
:10152000116083F310881AE09B465B4600229A5EA6
:10153000002A0BDB53009B18DB0053449868D968E2
:1015400026002F00361A8F41002FEDDA4B46594600
:101550000B80634600215B5E994663461A804B46CA
:10156000002B57DB43465A6992464B465B004B447F
:10157000DB009C46D44463469C68DD6846460836DA
:10158000B346D2E7002342469371414608314346B1
:101590000820185E11E001225242D317A260E360D6
:1015A000434608229B5E834206D00D8043460822B4
:1015B0009B5E2380434618812800431C2ED043465F
:1015C0005A6943001B18DB00D418D55E63881BB230
:1015D000002BE0DB2100EFE722002B0001992248DD
:1015E000FFF7BCFE204800F047FB241A8D41002D78
:1015F00028DC25D01C4B009A5A63434608229B5E88
:101600009946002B00DBE1E643469B881BB2002B8A
:1016100000DB6FE743469B79002BB3D1434608229A
:101620009A5E002A0EDB4346596953009B18DB0083
:10163000CB189C68DD68631CCED16B1CD2D0CBE785
:10164000002CD7D040BF03B0F0BCBB46B246A94681
:10165000A046F0BD745600203C7005406C67041035
:10166000E48E0410986704100040054089130010B0
:1016700070B504000D0011000126AE40066228007E
:10168000FFF750FB01212800FFF714FB024B9C469B
:101690006444266070BDC04638200000F8B5CE46D0
:1016A000474680B50600894690461F00C160FFF797
:1016B00031FA154B9C4660448000306143463370DC
:1016C000BBB27381D022120612787270012252428C
:1016D0003281B2809B187380002406E0621E736919
:1016E00065002D19ED005A530134BC42F6D3074B67
:1016F00042469200D650064A41464846FFF7B8FF98
:10170000C0BCB946B046F8BD400000347456002055
:101710008913001070B505000C00160001238B40E2
:101720000362084A8218136001212000FFF7C2FA01
:1017300031002000FFF72CFC2100280000F084FA83
:1017400070BDC0463830000010B5084B1A68EFF382
:10175000108172B61368002BFCD0BFF35F8F034873
:1017600007F03AF90020002110BDC046345B00208C
:1017700010B5064B1B69002B01D0044810BD044B6B
:10178000044A0548652102F021FDC046541E002090
:10179000D0670410CC8E04109867041070B5050053
:1017A0000E00182001F04EFB041E0ED01821300050
:1017B00001F05EFB60610121280000F04DFA02009B
:1017C000330029002000FFF769FF200070BD0000F2
:1017D00010B50400134B984215D00178124AC06826
:1017E000FFF798FF2378114A99008A58A24211D135
:1017F0000E4A9B0000219950606901F051FB2000C6
:1018000001F04EFB10BD0A4B0A4A2E210A48FF3157
:1018100002F0DCFC094B074A99210748490002F015
:10182000D5FCC046541E00208913001074560020B9
:101830005C660410B88E041098670410F4670410F6
:10184000F8B504000569EFF3108072B62968002925
:10185000FCD0BFF35F8F0221665E65697100891954
:10186000C9006D18002E02DB0027E95F6180216945
:10187000BFF35F8F00270F6080F31088002E2CDBF2
:101880000699296107996961AA60EB606B88013349
:101890005B04590C002B00D1012169803000FFF757
:1018A0006FFD2169EFF3108372B60A68002AFCD03D
:1018B000BFF35F8FA2882A80A6802269BFF35F8F63
:1018C0000021116083F31088E368217801228A40A7
:1018D00003498C4663441A60F8BD01204042FBE78F
:1018E0003C20000070B582B0060014001D0008AB5B
:1018F0001B78002B07D100F0F1F922002B00121AFF
:101900008B41002B0ADB079B0193069B009322006F
:101910002B003000FFF794FF02B070BD0020FBE702
:10192000F0B5C64600B584B00500884616001F0015
:101930000AAB1C78FFF71CFF0294019700962A005F
:101940004346FFF7CFFF04B080BCB846F0BD0000AF
:1019500030B5030008145A8990422EDA5C694200BF
:101960001218D200A2181D69EFF3108472B628680D
:101970000028FCD0BFF35F8F508880B20904090CA7
:10198000884212D000201A69BFF35F8F00211160D6
:1019900084F31088002811D0DA681B78013199404F
:1019A000074B9C466244116008E00649014389B236
:1019B000518001229A710120E5E7002030BDC04628
:1019C0003C2000000080FFFF10B50400FFF7D0FEB0
:1019D0002100FFF7BDFF10BD40787047F0B583B020
:1019E00006000F00EFF30583002B1AD19624644202
:1019F000E517A4197D418D4202D803D1844201D953
:101A00000024002500F06AF922002B00121A8B41F5
:101A1000002B0BDC08D03000390000F071F903B066
:101A2000F0BD1748FEF7E6FF002AF4D0154A002360
:101A3000009320002900FFF773FF002812DAEAE77D
:101A4000002300E00023002BE5D10F4B1A68EFF3D1
:101A5000108172B61368002BFCD0BFF35F8F0A4869
:101A600006F054FF094B5B6A9D42EBD80749896A2F
:101A7000A14203D29D42E3D00123E4E70123E2E740
:101A80003468041049170010345B00200040054002
:101A900070B504000D0000F021F90019694100291A
:101AA00002DBFFF79BFF70BD012040420049F8E7D1
:101AB000FFFFFF7F10B5FA2292000023002101F002
:101AC000BDF8FFF7E5FF10BDF0B5CE46474680B53F
:101AD00083B005000C00EFF30583002B15D0434BBA
:101AE0005B6A8B4209D3414A926A82420BD28B4293
:101AF00001D0012002E0002000E0002003B0C0BCC3
:101B0000B946B046F0BD0120F8E7FFF731FEC368E3
:101B10009946037898462E002700484600F0ACF816
:101B200002000B00B61A9F41434604339B004A460D
:101B30009B581B1A0022BA420FDC0CD020BF2B4B43
:101B40005B6A9C4220D8294A926AAA421ED29C42D1
:101B500018D00120D2E7B342F0D9254A00230093E0
:101B600028002100FFF7DCFE002811DD1F4B5B6A17
:101B70009C4221D81D4A926AAA422FD29C4219D077
:101B800001231AE00020B9E70020B7E70120B5E7FC
:101B9000164B5B6A9C4209D8144A926AAA4207D241
:101BA0009C4201D00120A9E70020A7E70020A5E77B
:101BB0000120A3E7002300E00023002B00D120BF79
:101BC000FFF702FF094B5B6A9C420BD8074A926AF7
:101BD000AA4209D29C4203D001208FE70123ECE7FF
:101BE00000208BE7002089E7012087E700400540BF
:101BF00049170010004870470040054010B50B4BD6
:101C00001B69002B04D00A480A21FFF747FB10BDCF
:101C1000FFF7F0FF0400032100F00CF80348102345
:101C200003222100FFF73AFDEDE7C046541E0020D5
:101C3000345B002010B5024A0248FEF709FF10BDD0
:101C4000846804101449002010B50248FEF742FFD2
:101C500010BDC0461449002000B583B00448054BB0
:101C6000009303230022FEF70CFF03B000BDC04623
:101C700014490020A86804100200436A906A190001
:101C8000536A9942FAD17047416A00E0416A994229
:101C9000FCD300E0416A994202D1816A9142F9D3B2
:101CA0007047F0B5C64600B5804614001D00FFF72A
:101CB000E3FF06000F0022002B0092197B4199429E
:101CC00002D804D1904202D901225242D317404691
:101CD000FFF7DAFF80BCB846F0BD000010B502483F
:101CE000FFF7CAFF10BDC0460040054010B5020016
:101CF0000B000248FFF7D5FF10BDC046004005406D
:101D000010B502000B000248FFF7BEFF10BDC04631
:101D100000400540074B98420AD0162301229A4002
:101D2000054B1A60054B1B6811009943FAD17047A7
:101D30001723F3E70080034000F0004008C0004094
:101D400070B5046BE30701D4200070BD0B4BC318C2
:101D50000B4A1A60456A836AAD01ED18AD02062090
:101D600000F016F9074900F097FB0100280000F089
:101D700093FB0021FFF7BAFFE6E7C04630300000D2
:101D8000010300004E0E000070B504000E001500A7
:101D9000FFF7D6FFE36A5E403540024BE3181D6053
:101DA000206370BD2C10000070B505000C000620EB
:101DB00000F0EEF8C000210000F06EFB0130C60913
:101DC00007D00E4B9E4215D8400834003F260640EF
:101DD00000E001246C62AE62002200212800FFF7BF
:101DE000D3FF062000F0D4F88000A101891900F08B
:101DF00053FB70BD0026024CECE7C046FEFF00001E
:101E0000FFFF0000002909D00A22064B9C466044CF
:101E100043425841044B4000C25270478022520056
:101E2000F3E7C0460080FCBF405B002070B50400B3
:101E30000D00062000F0ACF800281ED0104B9C428C
:101E40001CD01622012393400E4A13602000FFF796
:101E500061FF00212000FFF7D5FF29002000FFF7D8
:101E6000A3FFE26A70235A400E331340064AA218B9
:101E70001360064B23630323A36470BD1722E1E7BD
:101E80000080034000E000402C100000010300002F
:101E9000F8B5D646474680B506000D0017009846AF
:101EA00044002418A400294B9C4664446368089AA3
:101EB000934200D26260331FDBB29A46012B2ED9C7
:101EC00080221201C0239B01E3181A60204BB2004C
:101ED000D158002907D0586900F0DEFA01304300DC
:101EE0001B18033BFDD27F0123685F40E0233B408A
:101EF00080225201A21813605346012B1AD9802365
:101F00009B01E318802212011A60089B6360104B4A
:101F1000B6004246F250C0BCBA46B046F8BD012DEC
:101F2000CED10322C0239B01E3181A60A368DB070C
:101F3000FCD5D8E72168694003230B401360A368F0
:101F40000122AA401A42FAD0D9E7C04600800040D8
:101F50001C490020F0B583B005000E0017001800E2
:101F6000089900F099FA0300089A140200943A00C4
:101F700031002800FFF78CFF03B0F0BD10B582B030
:101F8000802464000094FFF783FF02B010BD0000BE
:101F9000014B8000C05870471C490020F0B5C64670
:101FA00000B504000E0017001D00374800F074FA59
:101FB0008046364BFA18364B9A4239D80100380021
:101FC00000F06AFA0200103A98235B009A4235D872
:101FD0006B1E062B38D8069B013B062B34D83F09D5
:101FE000474537D32D04069B1B031D432368002B55
:101FF00036DB284B9C4244D00C2201239340264AD6
:102000001360264A1360264A1268190091430A1E7B
:10201000F9D12660A060234BE31821321A602268B0
:10202000002AFCDAE56008221A6080BCB846F0BDE0
:102030001D4B1E4A1E48112102F0C8F81D4B1B4AB9
:102040001B48192102F0C2F81B4B184A18481C21E2
:1020500002F0BCF8194B154A1548232102F0B6F8D6
:1020600022683F231340B342C3D1A3681B051B0D55
:102070008342BED1E368EE22D2021340AB42B8D114
:10208000D3E70D22B9E7C046001BB70080E84BD369
:1020900080F8A93200C0024000E0004000F000409B
:1020A00008C0004004300000BC680410088F041011
:1020B0000C6904104C69041068690410B4690410B8
:1020C000024B1A68024B5A607047C04664560020A3
:1020D0000080054010B5174B8022D2051A60164BC0
:1020E000164A1A6000290AD0154BE022D2041A6061
:1020F000002809D1124B802212061A6010BD0D4B28
:10210000E022D2041A60F3E743011B1A9B0018185F
:1021100000010C4B186080235B04984202D3094BEA
:10212000094A1A60FFF7CCFF054B8022D2051A60DE
:10213000E4E7C04600B0054008200140FCFF010074
:1021400000A0054064560020FFFFFF0010B503000B
:1021500010000C4A8024E4051460002B0DD00122ED
:102160001343094A094CD461094C5C401462516222
:1021700093620021FFF7AEFF10BD034B0022DA612E
:10218000F7E7C04600B0054000800540D3C007B067
:102190002D3FF84F80239B000B43014AD3627047C9
:1021A0000080054010B5010018231B8814221088F8
:1021B000984710BD10B5010018231B8816221088FF
:1021C000984710BDF0B5C64600B507000E000025C3
:1021D0000123984600E00135B5420AD2AC003C1913
:1021E0002068FFF7DFFF20600028F4D10023984625
:1021F000F1E7404680BCB846F0BD000070B5040071
:102200000D000648FFF7CEFF0300002C03DB012082
:10221000A040290098470020FBE7C0465542000037
:10222000074BAA2212011A608D225200DA60054B78
:10223000054A1A60024B5B68002BFBDA7047C04608
:10224000004002400060024000B0FA0010B50400F7
:1022500001E008CC9847024B9C42FAD310BDC0461F
:10226000846004107047000010B50248FFF7EEFFCD
:1022700010BDC04648600410054B064A1A60064B64
:10228000064A1A60064B1A68044B9343FAD170470A
:1022900000E00040BFCDFBFE00F00040FE7F3C00B0
:1022A00008C00040044BDB6C002B03D1034B8022A1
:1022B000D2021A607047C046000011504C201150E5
:1022C000044B054A1A60054B1B68DB43DB01FAD15E
:1022D0007047C04600F00040FFFFFF0108C000400B
:1022E000034B40229A675A671A67DA667047C046FE
:1022F00000F0014010B5FEF72DFC10BD10B50C4AE2
:102300000C4BD21A92101400302A00D930229200BD
:102310000948084900F0E2FD04E0084A064BA10024
:10232000CA5001342F2CF8D9034B054A936010BDD5
:10233000C00100100001001000000020C1010010C9
:1023400000ED00E070B50420FFF722FE064900F022
:10235000A3F805000024002C00DD70BDE0B22900C8
:10236000FFF718FF0134F6E740420F0030B583B0A5
:10237000274B00229A67FFF753FF264B01221A6072
:10238000234B5B6C012BFBD1234B03221A60204BA8
:102390009B6B012BFBD10133009304331F4A0121B6
:1023A0001F48FFF7FBFD052300931E4A01211E482D
:1023B000FFF7F4FD1D4B002202210420FFF7DEFD94
:1023C0001B4D2B00002201210520FFF7D7FD194CE2
:1023D0002300002200210720FFF7D0FD2300002268
:1023E00000210820FFF7CAFD8023DB0000932300B3
:1023F000002200210920FFF7ADFD2B000022002163
:102400000620FFF7BBFDFFF79DFF03B030BDC046C0
:10241000008000403CB0004030B00040002F6859C0
:1024200000800240008C864700C00240001BB700BD
:1024300040597307006CDC0201480421014B184726
:10244000701E0020C5210010124A936F9B0815D200
:102450009066D166002905D0FFE7FFE7FFE7516FDF
:10246000106F704704B580210906C217514000283B
:1024700000D0C84343F038FD002104BDF0B5146E10
:10248000556E576F166FFFF7E3FF14665566576773
:102490001667F0BD000000D0114A936F9B0813D25D
:1024A00010665166002905D0FFE7FFE7FFE7516F8F
:1024B000106F704704B5002801D00020C04343F0DE
:1024C00013FD002104BDC046F0B5146E556E576F64
:1024D000166FFFF7E5FF1466556657671667F0BD80
:1024E000000000D094464A4A926F9208624601D298
:1024F00028E0C046F0B5464E346E756E776F366F85
:1025000000F020F89446424A1466556657671667ED
:102510006246F0BD94463E4A926F9208624601D2EE
:1025200054E0C046F0B53A4E346E756E776F366F34
:1025300000F04CF89446364A14665566576716679D
:102540006246F0BD002B24DB11D000293EDA00B535
:10255000C943404200D1013100F038F8C94340423C
:1025600000D10131DB43524200D1013300BD002ACA
:10257000EBD1002801D1002905D00020C90FC907DF
:1025800001D1C043410800B543F07EFC0022002386
:1025900000BD00B500290ADBDB43524200D1013304
:1025A00000F014F8C943404200D1013100BDC943D5
:1025B000404200D10131DB43524200D1013300F0EF
:1025C00005F8DB43524200D1013300BD002923D17D
:1025D000002B18D1002A0CD0BC460D4F38667A6605
:1025E00000210023FFE7FFE7FFE77A6F386F6746B8
:1025F0007047002801D00748010000B543F044FCB3
:102600000022002300BD02000B00002000217047C3
:10261000000000D0FFFFFFFF002B00D0BFE0130C35
:1026200028D1002AE7D080B4114F39667A66FFE7D7
:10263000FFE730B4040C7B6F396F1B0423433B6608
:102640007A66FFE7FFE7FFE7C04684B27B6F3D6F26
:102650001B0423433B667A66FFE7FFE7C04600237F
:102660002C042D0C7A6F386F00196941B0BC70478B
:10267000000000D0F0B594460025140E01D11202DE
:102680000835140F01D112010435940F01D19200C5
:102690000235D40F01D152000135D40B0134254F3E
:1026A0007C66254C3C660E0C93B2FFE7FFE7FFE724
:1026B0003C6F6643360C7703BE467343DF0B5B0407
:1026C000C01AB941130C7343DB18C91ACE0866430C
:1026D000360CB64493B273431F0F1B01C01AB941A5
:1026E000130C73431F0B1B05C01AB941860D8F02D3
:1026F0003E436643360C092D24DB520A7243801A8E
:102700007703460A6643360C16235B1BDE40DF4028
:10271000BF1964466643821B7046043506330100C8
:10272000D940A840C01900D30131A24206D20023EB
:10273000F0BD0000000000D0FFFFFFFF121B0130C2
:10274000F3D3F1E709277F1BFE406446A2B2724330
:10275000801A00D20139220C7243130C1204821A1F
:1027600099410B007046043513370100F940A84029
:10277000801900D30131002B02D1A2420AD2F0BD50
:10278000013000D30131121BFAD2013BF8D1A24231
:1027900000D2F0BD013000D30131121BF7E7F0B5D4
:1027A0001C0C00D080E00CB400251C0A04D11B02D4
:1027B000160E3343120208351C0B04D11B01160FF1
:1027C0003343120104359C0B04D19B00960F334315
:1027D00092000235DC0B02D192185B4101351C00DE
:1027E000971864410134464F7C66464C3C660E0C9B
:1027F000FFE7FFE7FFE7C0463C6F6643360C770311
:10280000BE4697B27743C01B00D20139C01B00D22D
:1028100001399FB27743C91BC91B170C77437E044C
:10282000FF0B801BB941CE086643360C0C2D33DB01
:10283000B644120B1F053A431B0B97B27743C01BDC
:1028400000D201399FB27743C91B170C77433E046E
:102850003F0C801BB941860D8F023E4366432927FA
:102860007F1BFE400C3D7746AF40BF1930BCA2B283
:10287000ABB272437343801A9941220C7243130C1A
:102880001204801A994102000B000137001BA94174
:10289000F9D2781E0021F0BD0C277F1BFE40774641
:1028A0007F0BAF40FF19E0E700245D1C07D0144FF9
:1028B0007D663966FFE7FFE7FFE7FFE73C6F95B20C
:1028C0009EB265436643401BB141150C1E0C654327
:1028D000664336042F0C3E432D04401BB141994200
:1028E00004D202000B0020000021F0BD01D1904273
:1028F000F7D3801A994101349942F2D3F6E70000E8
:10290000000000D0FFFFFFFF48404140484018B49E
:10291000134B5B68019308BD18B4114B1B680193FE
:1029200008BD94460F4A926F920805D2624618B4C9
:102930000B4BDB68019308BD0A4AF0B5146E556E67
:10294000576F166F6246FFF7F2FF064A1466556628
:1029500057671667F0BD18B4014B9B68019308BD1B
:1029600030590020000000D0FFB550404240504098
:1029700059404B40594000E0FFB5154F4C00640DE5
:1029800003D0BC4204D10C0314D80020090D090562
:102990005C00640D03D0BC4204D11C030AD80022A1
:1029A0001B0D1B0501264B4009D44B4003D58B4220
:1029B00000D18242FFBD9942FCD19042FFBD0B4342
:1029C000DB1803431343F5D0C9434918FFBD00008A
:1029D000FF07000000B5FFF7CFFF01D0002000BDCA
:1029E000012000BD00B5FFF7C7FF804100BDC04614
:1029F00000B5FFF7C1FF01D9002000BD012000BDD7
:102A000000B5FFF7B1FF01D9002000BD012000BDD6
:102A100000B5FFF7A9FF804100BD012040054A0035
:102A2000121804D85A00121801D80020704701204B
:102A3000704700000021002805D17047C1174840A9
:102A4000401AFAD0C90713B5064B1B6898470CBC4F
:102A5000441CA2401005120B0349091B0905194328
:102A6000114310BD305A00201F04000010B54C0067
:102A7000620D8023D218DB00D21A5B057E2A10DD9E
:102A80009E3A13DACC170903490819435242D14040
:102A9000640001341532202A05DAD040084360432F
:102AA00010BD002010BD0846604310BDC80FC018FF
:102AB000013810BD18B4024B5B6A019308BD0000D9
:102AC0003059002018B4024BDB6D019308BD0000A3
:102AD00030590020C94211D300B5490049080022ED
:102AE00000F014F8002904D4002240428A41114623
:102AF00000BD80210906002000BD000018B4024B73
:102B0000DB6E019308BD00003059002018B4024B61
:102B10009B6F019308BD00003059002018B4024B90
:102B2000DB6F019308BD00003059002010B501484B
:102B3000FDF760FFD069041070B513231C78012CD9
:102B400012D0012C12DC214B214A93642148FFF75B
:102B500029FB214B186070BD20491D4A9800815007
:102B600001331F2BF8D9ECE70023FAE71C48FFF7E5
:102B700021FB05001B48FFF71DFB023803789B0073
:102B80007F2B09DD12488022290000F0A7F9022CD2
:102B900008D0022CDADCD6E7134B144A1448332150
:102BA00001F014FB134B1A88B5231B029A4209D17A
:102BB000114B1A88114B9A4204D1114B1A88114BB0
:102BC0009A42E6D00020FDF715FFC046092C001000
:102BD000305900204C330000305A00202D2B0010BB
:102BE0005344000053460000E8690410148F041099
:102BF0002C6A041054380000D83800004946000000
:102C00009C3800005946000007B56046002800D1F6
:102C100000BE01880A0A0230DF2AFAD1C9B282084E
:102C200004D3028840880004104300E00068024A90
:102C30005050039007BD00003059002051434343DA
:102C4000C9188C46110C83B24B4310B4040C614379
:102C500092B280B2504362431C041B0C001910BC9A
:102C600059411304120CC0185141614470470000CF
:102C70004840414048400E4B5B6818470C4B1B686E
:102C800018470C4A936F9B0802D2094BDB68184720
:102C9000F0B5146E556E576F166FFFF7F6FF054AC5
:102CA0001466556657671667F0BD014B9B68184759
:102CB000345A0020000000D007B548404140484049
:102CC00001E0C04607B54200120E03D0FF2A03D12F
:102CD000420218D8C00DC0054A00120E03D0FF2AC8
:102CE00003D14A020FD8C90DC9050122414005D4BC
:102CF000414001D5814207BD884207BD01434918C3
:102D000001D0C043001807BD00B5FFF7DBFF01D0BD
:102D1000002000BD012000BD00B5FFF7D3FF01D9A1
:102D2000002000BD012000BD01231B064200D21877
:102D300004D84A00D21801D80020704701207047FB
:102D4000C10FC90700D54042002817D0F44603B48C
:102D50000B4B1B68984706BC81409E38404280312F
:102D600007D20B0607D04900490AC00510430843A3
:102D700060470130F8E7490A8902F5E7704700002B
:102D8000305A0020014BDB6F18470000345A0020F6
:102D900010B50148FDF72EFE0C61041070B5132329
:102DA0001E781848FFF706FA0500012E11D0012EF3
:102DB00009DDAB1E1B789B007F2B1DDD1248802296
:102DC000290000F08BF81148FFF7ECF9104B186060
:102DD00070BD0D485422290000F080F8002300E067
:102DE00001331F2BE3D8084A9C00A258002AF7D1D0
:102DF0000849054AA150F3E7074B084A0848422111
:102E000001F0E4F953460000345A00204C3300002E
:102E1000305A0020912D00107C6A0410288F041075
:102E2000B06A041010B5002804D04018034B984233
:102E300000D810BD0248FDF7DDFDC04600000420AB
:102E4000006B041070B50500084E300043F0D4F854
:102E500028003AF0EFF90400300043F00DF82900A3
:102E60002000FFF7DFFF200070BDC046B82600201D
:102E7000F8B506000C00094F380043F0BDF82100FA
:102E8000300037F081FB0500380042F0F5FF2100EB
:102E900071432800FFF7C6FF2800F8BDB8260020C0
:102EA00070B50400054D280043F0A6F820003AF064
:102EB000CBF9280042F0E0FF70BDC046B8260020E4
:102EC00001480421014B1847801E0020C521001035
:102ED000014B1B6818470000801E0020014B5B68F7
:102EE00018470000801E002010B5FFF7ABFF10BD93
:102EF00010B5FFF7A7FF10BD10B5FFF7D1FF10BD4C
:102F000010B5FFF7CDFF10BD10B5FFF7C9FF10BD1D
:102F10009A4200D288547047704710B5002802D0FA
:102F20000B684968984710BD0100002007E0830046
:102F30001B185B00501C08601078C01830380A68F5
:102F40001378303BDBB2092BF1D97047F0B5DE4680
:102F500057464E464546E0B583B093461F000C9B4E
:102F60009A460D9C0E9B99460F9B9B0703D0B84633
:102F70000F00060022E00192A34688464E46B9465D
:102F80000700B44207D2551C4B4641462020B847A3
:102F900001342A00F5E73D004F465C46019B9B4605
:102FA000B1464646B84637002E0007E0013C551CA6
:102FB0005346185D43463900B0472A00002CF5D12E
:102FC00035003E0047460F9B9B0707D4100003B017
:102FD000F0BCBB46B246A946A046F0BDB0464E4640
:102FE000B9462F005D46531BB342EFD2541C4B46EB
:102FF00041462020B8472200F5E7F0B5CE464746C7
:1030000080B585B0944698460C9D0D9C0EAB1B7800
:103010009946109A119B129EB7071CD4002B0CD016
:10302000F7070AD54F46002F02D10C37374204D09C
:10303000013B02E030272F550134944201D21F2C6E
:10304000F8D9F70707D59C4205D21F2C03D83027A3
:103050002F550134F5E7F70612D5770505D4002C76
:1030600003D0944221D09C421FD00F9A102A32D014
:103070000F9A022A37D01F2C0AD830222A55013441
:103080001F2C05D84A46002A33D02D222A55013458
:10309000039602930194009543466246FFF756FF5C
:1030A00005B0C0BCB946B046F0BD621E012C10D0C0
:1030B0000F9F102F0BD014000F9A102AD8D1B206F0
:1030C000D6D51F2CD4D858222A550134D3E7023C38
:1030D000CBE71400C9E7B206EED41F2CECD8782257
:1030E0002A550134C7E71F2CD2D860322A55013443
:1030F000C1E7720703D52B222A550134C8E73207EE
:10310000C6D520222A550134C2E7F0B5DE4657461F
:103110004E464546E0B593B081468A4608920993EB
:103120001CAB10CB1B789B461E9D219B9846002C08
:1031300003D1102342469A4390468023DB00464643
:103140001E4042461A4212D0002C22D000260EE029
:103150003033D9B2771C0AAB995529002000FFF70C
:103160009BF9AC4216D31F2F14D83E00040029004F
:103170002000FFF791F9CBB2092BE9D9424692061C
:1031800005D54121C918C9B20A39C9B2E2E761219E
:10319000F8E7270043460693209B05931F9B049363
:1031A00003955B46029301970AAB0093099B089A2B
:1031B00051464846FFF721FF13B0F0BCBB46B2466C
:1031C000A946A046F0BDF0B5DE4657464E464546F8
:1031D000E0B597B00A900B910C929A46209B9946C5
:1031E000219F22AA13789B46249B0993259C289B08
:1031F00098464A463A4302D1103293439846802279
:10320000D20045461540434613420AD04A463A4347
:1032100041D000252E0053460D934D46099B9A46FA
:103220001BE02E0053460D934D46099B9A4614E031
:103230003033DAB2731C99460EAB9A5552462300CE
:1032400028003900FFF766F9BC4226D819D04B4652
:103250001F2B1CD84E4605000F00524623002800A5
:103260003900FFF757F9D3B2092BE1D9424692064C
:1032700005D54122D218D2B20A3AD2B2DAE7612297
:10328000F8E7AA45E3D94E460D9B9A4608E04E461C
:103290000D9B9A4604E0002602E04E460D9B9A469E
:1032A00043460693279B0593269B0493099B039310
:1032B0005B46029301960EAB009353460C9A0B9912
:1032C0000A98FFF79AFE17B0F0BCBB46B246A94673
:1032D000A046F0BDF0B5DE4657464E464546E0B541
:1032E00091B0804689460C929A461A9C1B9D2200FA
:1032F0002B0020002900FFF790FB002800D0ECE015
:1033000001225242D44B20002900FFF781FB002804
:1033100000D0E2E001225242D04B20002900FFF70A
:1033200061FB002800D0D8E0002200232000290003
:10333000FFF758FB002800D0E4E0069407958023AF
:10334000DB001E9A1A400D921E9A1A4201D10623E2
:103350001C930698079902000B000892099303003A
:103360000A00024300D1D9E0080D4005400DBC4ED3
:10337000B44660440A03120B1E00BA4B13431F00ED
:10338000FFF75CFBB84AB94BFFF7E5FAB84AB94B0F
:10339000FFF7C2FA089009910022B74B30003900BC
:1033A000FFF7B5FAB54AB64BFFF7D5FA02000B00A6
:1033B00008980999FFF7B0FAFFF758FB8346FFF723
:1033C0003DFB06000F00AF4AAF4BFFF7C4FA0022E7
:1033D000AE4BFFF7A1FAFFF749FB0890AC4AAD4BA3
:1033E00030003900FFF7B7FA06000F000898FFF722
:1033F00025FBA94AA94BFFF7AEFA02000B003000EB
:103400003900FFF784FA06000F0002000B00FFF7F7
:10341000A2FA0A900B91089BA14A944663440021AA
:103420000022089109921B0509930023089332009A
:103430003B0030003900FFF76FFA0E900F91320019
:103440003B0000208021C905FFF761FA06000F004C
:103450000022944B0A980B99FFF763FA0022924BD3
:10346000FFF75AFA02000B000A980B99FFF759FA76
:1034700000228E4BFFF750FA02000B000A980B99BE
:10348000FFF74FFA02000B0030003900FFF744FA53
:1034900002000B000E980F99FFF743FA0022714BC0
:1034A000FFF73AFA089A099BFFF755FA06000F0052
:1034B00008960997069A079BFFF7AAFA00282FD0CB
:1034C00001235B429C46E3440022774B30003900E5
:1034D000FFF727FA0890099122E01E9B04931D9B99
:1034E00003931C9B02930094019553460C9A494602
:1034F000404600F0FFF811B0F0BCBB46B246A9460A
:10350000A046F0BD00210022069107920694802378
:103510001B069C46AC446346079310E700239B467A
:103520005B466333C62B20D804261E9B1B0528D57B
:10353000089A099B190011430FD05D4A5D4B06980C
:103540000799FFF75DFA00287AD000225A4B0698B7
:103550000799FFF747FA002872D01C9B5B4506DDF0
:103560005A469B1A013B1C9303E00526DDE7002326
:103570001C938023DB001E9A1A431E920026002310
:103580009B461D9B9E4265D29F1B02231E9A1A409A
:103590000A921E9A134202D0002E00D000275B46EA
:1035A000002B07D0089A099B06980799FFF7B9F9ED
:1035B000069007910022002320002900FFF712FA4D
:1035C000002800D07CE03D4B1E9A134004930397E3
:1035D0001C9B0293069B079C0093019453460C9AF4
:1035E0004946404600F086F8002E00D183E71E9B36
:1035F0009B0671D54525441C5346020049462800C8
:10360000C0475A46D317D2185A4005230593013EA6
:103610000496002303930A3302935B46DB0F019366
:1036200000925346220049464046FFF76EFD0A9B32
:10363000002B00D15FE7020047460C9E1D9D53E022
:103640001C9B002B9DD00D9B002B9AD01C9B013BFB
:103650001C9396E7002798E7FFFFEF7FFFFFEFFF40
:1036600001FCFFFF0000F03FFB799F501344D33F64
:10367000B3C8608B288AC63F0000F83F61436F6380
:10368000A787D23F71A379094F930A400000E03F1A
:103690001655B5BBB16B0240EF39FAFE422EE63F3C
:1036A000FF03000000002C400000244000001840F0
:1036B0002D431CEBE2361A3F80842E41FFF7FFFFBB
:1036C000069C079D22002900802000068446614454
:1036D0000B000692079376E765258CE7541C53464A
:1036E00049462020B8472200931BAB42F6D3100076
:1036F00001E7C046F0B5DE4657464E464546E0B5C2
:1037000095B00690079193469946209F1E9A1F9B5D
:1037100010001900FFF781F9002831D1012252422F
:10372000BF4B1E981F99FFF75DF9002837D1012282
:103730005242BC4B1E981F99FFF76AF900283DD1F1
:103740000022B94B1E981F99FFF762F9002850D14B
:103750000022B64B1E981F99FFF744F9002848D164
:10376000002200231E981F99FFF73CF9002850D132
:1037700000239846229B5B0500D4B6E0002458E065
:10378000229B0393219B029303230193A84B009355
:103790004B465A4607990698FFF7D8FB0EE1229B45
:1037A0000393219B029304230193A24B00934B4666
:1037B0005A4607990698FFF7C9FBFFE00423229AAF
:1037C0001A4022990B4210D09B4B002A0FD00422A2
:1037D0002299039121990291019200934B465A46F6
:1037E00007990698FFF7B2FBE8E0944BEDE7032258
:1037F000EEE7229B0493219B039302971E9B1F9C41
:10380000009301944B465A4607990698FFF762FDCC
:10381000D4E01E9A1F9B00200021FFF778F81E902D
:103820001F9101239846A5E70CAB30221A55013FA2
:1038300001341F2C01D8092FF6D81E981F99FFF7C5
:1038400015F90500FFF7FAF802000B001E981F9902
:10385000FFF75DF87A4BFA009B181A685B680A92CA
:103860000B93FFF778F808900991FFF723F906000A
:10387000FFF7E0F802000B0008980999FFF747F8F6
:103880000890099100226F4BFFF7C2F800282ED054
:1038900001363000FFF7CEF802000B000A980B99B2
:1038A000FFF7A6F8002801D001350026002F2CD103
:1038B0002800FFF7C3F802000B001E981F99FFF7BE
:1038C00026F806000F0000225E4BFFF78BF8002859
:1038D00046D100225B4B30003900FFF799F80028F1
:1038E0003ED1EB073CD501353AE0062746E70022FA
:1038F000544B08980999FFF775F80028D6D1002E87
:1039000001D0F307D2D50136D0E7AA461F2C11D833
:10391000013F0A213000FEF7BFFD651C30310CABC2
:1039200019550A213000FEF7B7FD092E0ED9060001
:103930002C00EBE755461F2C0CD87B1E002F09D01E
:103940000CAA302111551F000134F4E72B00554615
:103950001C00F0E71F2C03D80CAB2E221A550134A3
:103960001F2C10D80A212800FEF76EFD661C30318E
:103970000CAB19550A212800FEF766FD051E01D083
:103980003400EDE734000323229A1340012B1CD0AE
:103990001F2C06D84346002B32D00CAB2D221A55D3
:1039A0000134229B0393219B029301940CAB00935F
:1039B0004B465A4607990698FFF7C8FA15B0F0BC6F
:1039C000BB46B246A946A046F0BD219B002B13D0B2
:1039D0004346002B02D10C3313420FD0219B013BF5
:1039E0002193190003E00CAB30221A5501348C42AC
:1039F000CED21F2CF7D9CBE72199F8E72199F6E72A
:103A0000229B5B0704D50CAB2B221A550134C8E767
:103A1000229B1B07C5D50CAB20221A550134C0E7E9
:103A2000FFFFEFFFFFFFEF7F65CDCD4165CDCDC13E
:103A30006C6B0410706B0410606B0410686B0410E6
:103A4000309104100000E03FF0B5DE4657464E4688
:103A50004546E0B593B082468846934611930029C7
:103A600000D10DE300255646119B1878002800D19F
:103A700009E3252809D06C1C5B462A004146B04763
:103A8000119B013311932500EEE7013311930027B9
:103A900020E001231F4301321192012418E0022388
:103AA0001F4301321192012412E004231F4301320B
:103AB000119201240CE008231F43013211920124CA
:103AC00006E010231F4301321192012400E000247C
:103AD000002C09D0119A1378203BD9B21029F6D8BE
:103AE0008B00C849CB589F46119B1A781300303B76
:103AF000DBB2092B10D92A2A13D00B94119B1A7808
:103B00002E2A1ED0119A1378683BD9B2122959D89F
:103B10008B00BD49CB589F4611A8FFF705FA0B90C3
:103B2000ECE71C9B1A1D1C921B68002B04DB0B93FB
:103B3000119B01331193E1E7022217435B420B9380
:103B4000F6E78022D20017435A1C11925A781300CC
:103B5000303BDBB2092B0BD92A2AD3D11C9B1A1D6F
:103B60001C921C68002C08DB119B01331193C9E7E0
:103B700011A8FFF7D9F90400C4E70024F4E7802373
:103B80005B003B43511C119151786C2901D01F00FF
:103B900018E0C0239B001F430232119212E08023E1
:103BA0003B43511C11915178682901D01F0009E055
:103BB000C0231F430232119204E080235B001F43A5
:103BC00001321192119B1878672818D8252800D245
:103BD0004CE20300253BDAB2422A00D946E29300C8
:103BE0008A4AD3589F4680239B001F43013211927B
:103BF000E8E780235B001F4301321192E2E7782857
:103C000000D933E2692800D230E20200693AD2B228
:103C1000012393407E4A134211D11A0600D500E2D7
:103C20005B0500D422E21C9B1A1D1C921B689A465D
:103C3000002C00D0B2E10122524253468EE16F289F
:103C40000ED006D858283DD0622804D102239C46C5
:103C500008E0782839D010239F43063B9C4601E0BA
:103C600008239C46582833D0692803D0642801D003
:103C70000C2297437A0501D50122974369282AD05F
:103C8000642828D0BA0500D59FE0FA0500D5C1E028
:103C90007A0600D4D3E01C9A111D1C911168FF22F2
:103CA0000A4005970B9B04930394634602930023F9
:103CB000019300925B462A0041463000FFF725FA47
:103CC000050027E010239C46CCE710239C46C9E75B
:103CD00020221743C8E7BA0520D4FA0550D47A0643
:103CE00066D51C9A111D1C911168FF220A40D0173D
:103CF0001118414005970B9B04930394634602936C
:103D0000D20F019200915B462A0041463000FFF736
:103D1000FCF90500119B01331193A5E61C9A0732AB
:103D200007218A43110008311C9111685368994694
:103D3000DB170C930D930C9A0D9B100048400E90CE
:103D40004A4653400F930E980F990C9A0D9B801A78
:103D500099410E900F9108970B9B07930694634629
:103D60000493002305934B46DA0F029200900191D1
:103D70005B462A0041463000FFF725FA0500C9E7F7
:103D80001C9A111D1C911268D017111841400597FB
:103D90000B9B0493039463460293D20F019200910C
:103DA0005B462A0041463000FFF7AFF90500B1E756
:103DB0003A0605D51C9A111D1C910023D25E96E788
:103DC0001C9A111D1C91126891E71C9A0732072159
:103DD0008A43110008311C9108970B9B07930694A6
:103DE000634604930023059302935368126800927C
:103DF00001935B462A0041463000FFF7E4F90500D5
:103E000088E7C046908F0410D48F041020900410CF
:103E1000419000001C9A111D1C9105970B9B049367
:103E200003946346029300230193136800935B4657
:103E30002A0041463000FFF768F905006AE73A06B4
:103E400006D51C9A111D1C9112681204120C28E749
:103E50001C9A111D1C91126823E7462819D01C9B3F
:103E60000733072293431A0008321C9204970B9AD7
:103E7000039202941A685B68009201935B462A00E1
:103E800041463000FFF736FC0500119B01331193CA
:103E9000EAE520231F43E2E7672801D0472802D143
:103EA00080231B011F43452801D0472801D120232F
:103EB0001F431C9B0733072293431A0008321C92AE
:103EC00004970B9A039202941A685B68009201931C
:103ED0005B462A0041463000FFF7FCF90500119BC4
:103EE00001331193C0E502231A003A4091463B4248
:103EF0001DD001241C9B1A1D1C926F1C18785B4658
:103F00002A004146B0474B46002B14D1119B013388
:103F100011933D00A8E5571C5B4641462020B04761
:103F200023003A005C1C9D42F5D81500E2E701230E
:103F30002A000B9DF6E73A00B1460B9E06E0571C9F
:103F40005B4641462020C8472C003A00651CA6422B
:103F5000F5D817004E46D9E701330A001978002931
:103F600002D0511E002AF7D152469B1A8022D2005D
:103F7000390011408946174202D0A34200D92300DC
:103F800002221100394010913A4209D02A0025003E
:103F900057469A4633004E46994621E022004CE6A9
:103FA0002A004546A04606E0541C5B462900202016
:103FB000B0473B0022005F1C0B999942F4D844465D
:103FC000A8463B00250057469A4633004E46994680
:103FD00006E01D000137541C5B464146C8472200DD
:103FE0003878002804D0002EF4D06B1E002DF0D1BC
:103FF000150053464E46109A002A03D1119B0133F7
:10400000119331E50B9F2A0006E0551C5B464146A3
:104010002020B04723002A005C1C9F42F5D81500E1
:10402000ECE721233B431C9A111D1C911268059358
:10403000082304930394083302930023019300920E
:104040005B462A0041463000FFF75FF80500119BF0
:104050000133119308E56C1C5B462A00414625207C
:10406000B047119B013311932500FDE46C1C5B46A6
:104070002A004146B047119B013311932500F3E418
:104080000A4B9A46EEE4B2465D450DD35B465A1E96
:104090005B4641460020D047280013B0F0BCBB4629
:1040A000B246A946A046F0BD2A00F1E7192F00103C
:1040B0000EB430B584B0010007AC08CC03940122E3
:1040C000054D009452422800FFF7BEFC04B030BCFE
:1040D00008BC03B01847C046112F001010B582B0BD
:1040E000044C009313000A0001002000FFF7ACFC11
:1040F00002B010BD112F001000B585B002900391E1
:1041000001210448009313004A4202A9FFF79CFCD6
:1041100005B000BD1B2F001000BEFDE703000A4ADA
:104120001268002A08D0084A1068C318074A9A4241
:1041300006D3054A13607047034A05491160F2E748
:1041400001204042F7E7C0466052002000000420F2
:10415000EC5B0220002070470120404270470000C5
:1041600010B5030008001100002B05D1044B1A689C
:104170005B6800F03FF910BD01204042FBE7C046FC
:10418000008F041010B5030008001400013B012B40
:1041900006D801230022210000F0E2F8200010BD23
:1041A00001204042FBE7012040427047012040428D
:1041B00070470120404270470300002002229A42CB
:1041C0004041704710B5FFF7A7FF000030B583B03E
:1041D0000D001900002A0BD0074B084C01920093E8
:1041E0002B000200200000F09BF90120FFF794FF54
:1041F000034B1A00F1E7C046786B0410886B04107B
:104200000C61041010B5EFF30583002B00D000BE45
:10421000FEF72AF8034C01E008CC9847024B9C4279
:10422000FAD310BD84600410B460041010B503000C
:10423000080011001B68984710BD0000F8B5070082
:104240000D001600437D002B02D0002400200CE05E
:1042500003681100280098472DE03B7D10E03B6883
:10426000154802219847601C0134B44214DA002C2E
:10427000F3DD2B19013B1B780D3B5A425341DBB256
:104280002A5D0A2AF0D1002BEED1A042E7DA3B6882
:10429000211A28189847E2E7B04203DA3B68311A3E
:1042A00028189847002E06DDAD19013D2B780D3BEF
:1042B0005A4253413B75F8BD8091041070B505001A
:1042C0000368002B16D00C4B1C6805E0290004C9BC
:1042D0002000FFF7B3FF2469002C09D02368002BCE
:1042E000F9D0064B1B68002BF0D0A342F3D1EDE7C9
:1042F00000232B6070BDC046545200205C52002049
:1043000070B505000C000B68802B05D023685A1C83
:104310002260E418257170BD0800FFF7CFFFF5E7B4
:1043200010B5FDF7DBFC074A002312184B41002BA8
:1043300003DB054841F018FE10BD01225242034B39
:10434000F7E7C04640420F00C0260020FFFFFF7F76
:1043500010B5024841F090FD10BDC046C0260020B7
:10436000F0B5CE46474680B583B006000D009046B6
:104370001C00FFF7D5FF81466B1C05D0002C08D030
:10438000184F194B1C6807E030003BF097F8050008
:10439000F4E7164FF5E72469002C17D02368002BAB
:1043A000F9D0134B1B68002B01D0A342F3D12A0094
:1043B00031002000B8474346002BECD06B46D91D96
:1043C0000A230B7001222000B847E4E74B46002B7C
:1043D00005D1280003B0C0BCB946B046F0BDFFF718
:1043E000B7FFF6E73D420010545200202D42001066
:1043F0005C520020F0B583B006000F0001920093DC
:10440000164B1C6808E0A368002B04D0390030006C
:104410009847002820DC2469002C06D0104B1D682A
:10442000002DF0D0A542F6D1EDE700990A000D4B22
:104430005B6A994209D80B49896A0198814209D27D
:104440009A4202D00220404206E001200021FDF7FE
:104450004DFCD5E70220404203B0F0BD545200208D
:104460005C52002000400540094A01E010331A0068
:104470001368002B08D08342F8D1002907D10369C3
:1044800013600023036102E0002900D01060704730
:104490005452002010B5064B1C6801E0984724696F
:1044A000002C03D06368002BF8D1F8E710BDC0469C
:1044B0005452002010B500F045F900F0E7FA012051
:1044C00010BD70B505003AF0F9FF04000123012288
:1044D00001002800FFF744FFFFF7DCFF200070BD5C
:1044E00070B5A2B004000E00FFF71AFF050000230C
:1044F00001930A483300220001A9FFF7FDFD0400E3
:1045000001A8FFF7DBFEFFF7C5FF002D02D1200059
:1045100022B070BDFFF71CFFF9E7C0460143001051
:104520000FB400B583B004A901C90191FFF7D8FF0A
:1045300003B008BC04B0184710B582B00C00144B8F
:10454000C3185A425341134A5B009B5E8B4204D00E
:104550006B46DA1D1470002115E06B46DA1D0D2341
:10456000137000210029F3D183699B06FCD41378D2
:10457000036001310132F5E783699B06FCD41378AF
:104580000360013101320029F6D002B010BDC046EF
:104590000080FCBF405B002082B000226B46D91D2A
:1045A00006E08369DB06FCD403680B70013201313D
:1045B000002AF6D06B46D87902B0704770B5060075
:1045C0000D00002405E0315D034B1868FFF7B4FFD0
:1045D0000134AC42F7DB70BD445B0020F8B5060047
:1045E0000D00002705E07C1CF719FFF7D5FF387098
:1045F0002700AF4204DA0D4A10688269D206F2D56C
:104600000B4A1268002A0AD0084A126850219163A6
:10461000506B18390140074B9C4662441160002FD3
:1046200001D03800F8BD033FFBE7C046445B0020E3
:10463000004900203410000010B5064B1B68002B09
:1046400006D0054A126800219163044A1068984711
:1046500010BDC04600490020445B002008490020EE
:10466000024B1A6893691B07FCD47047445B002017
:1046700070B51D4B1B681D4A934207D014240028B7
:104680001ED01B4B1B68002B02D070BD1524F6E713
:10469000174B1860174B196017492000FCF742FBB5
:1046A00001212000FCF706FB0F4B1B6850229A6388
:1046B000596B183A0A4011498C4663441A60E4E782
:1046C0000B4A1268002AE0D000259D6300212000DB
:1046D000FCF7F0FA08492000FCF75AFC044B1D6077
:1046E000044B1D60D1E7C046445B002000800340BE
:1046F000004900200849002039460010341000000D
:1047000070B50D001C000D4B1860002A0BDA002C50
:104710000EDA0A4B18682900FDF788FB08480121CA
:10472000FFF7A2FE70BD02211000FCF78BF8EEE748
:1047300002212000FCF786F8EBE7C046445B00202E
:10474000901E002010B5074B1B78074B1B78074BBA
:104750001B78E1210123002249020548FFF7D0FF21
:1047600010BDC0466C2E0510682E0510642E051075
:104770000040034070470000014B00221A70704750
:10478000E75B02204B79FF2B0CD18B79002B0BD1EF
:10479000CB79012B0AD1082A0AD98A78054B1A70DD
:1047A000092000E0002070470020FCE70020FAE725
:1047B0000020F8E7E75B02200120704710B50129CF
:1047C00028D1117953791B020B43134909788B4285
:1047D00001D000201FE05378012B03D0022B12D010
:1047E000002018E09178D3781B021943DB0507D528
:1047F000480A4A0A01231A407E331940FDF7FEFC9D
:1048000001204042F5E7642200210020FDF79EFCD4
:10481000012000E0012010BDE75B02200048704746
:104820006892041010B51400012910D15378012B9F
:104830000FD1127963791B021343072B01D000209B
:1048400006E0054A9F33210001F05AFB00E00120F9
:1048500010BD0020FCE7C046C09104100123037086
:1048600000487047A091041010B50A784B781B02DD
:1048700013438A7812041A43CB781B0613439622FB
:10488000D200934200D010BD01200022110040420E
:10489000FDF7B4FC024B1860024B19607047C0462C
:1048A000044900200C49002010B5FDF717FA0E4A04
:1048B000002312184B41002B12DB0C4841F054FB33
:1048C00000280CD001200021404201F0DFF9002037
:1048D00001F084FC0028F5D1044841F0CDFA10BD68
:1048E00001225242024BE8E740420F00385B0020B1
:1048F000FFFFFF7F10B5024B1878FCF7E5F910BDFC
:10490000E85B022070B5174B1B68002B20D0EFF33B
:10491000108272B6100019680029FCD0BFF35F8FB7
:1049200010494A60104B00221A700B68BFF35F8F6A
:104930001A6080F31088002400250C4B1878FCF7CF
:104940009FF9002808D1002400252000290070BD0F
:10495000FA24A4000025F0E7044B1878FCF7B4F91A
:10496000F3E7C0466C560020E95B0220E85B0220BA
:10497000F0B585B0060014001D000CAB1F78FDF7E4
:10498000ADF922002B0012184B41002B09DB0297D6
:104990000B9901910A9900913000FCF7A3FF05B033
:1049A000F0BD01225242014BF1E7C046FFFFFF7FFD
:1049B000F0B5C64600B584B00500884616001F0055
:1049C0000AAB1C78FCF7D4FE0294019700962A00EB
:1049D0004346FFF7CDFF04B080BCB846F0BD0000F1
:1049E00010B582B02348002141F09EFA002820D162
:1049F000214B1B68002B1AD0EFF3108172B6080010
:104A00001A68002AFCD0BFF35F8F1B4A51601B4914
:104A10000B7801246340DBB201240C701268BFF3F1
:104A20005F8F0021116080F31088002B17D102B036
:104A300010BD01200021404201F028F9002001F0C2
:104A4000A5FB04000B4841F017FA002CEFD00C4BEB
:104A50001B68002BEBD00B4A10689847E7E70A4A1F
:104A6000012300930023FA2080000021FFF7A0FF1C
:104A7000DDE7C046385B00206C560020E95B022071
:104A8000044900200C4900200549001010B582B0EF
:104A9000D0231B061C68FCF76BFEFCF79DFFA042B1
:104AA00030D1274B1B780021002002F061F8254B04
:104AB0001B68002B2CD00120FCF7CAFB224C207075
:104AC0002249FF231840FCF72DF920780121FCF73B
:104AD000F1F80520FCF708F9041E1DD00120FCF7B1
:104AE00027F801001A4B1800FCF724FC1949002292
:104AF0000520FCF741F918480121FFF7B5FC20001B
:104B000002B010BD154B164A1648C621FFF75EFBD2
:104B10000C48FCF7CBFBCEE70D4808220021FEF73E
:104B2000D7F9114A012300930023FA2080000021C5
:104B3000FFF73EFFC043C40F0028E0DADBE7C046C2
:104B4000702E0510385B0020E85B0220E149001060
:104B50006C560020F5480010A81E00205C6604106A
:104B600098920410E46B04100549001010B5002061
:104B700001F0F0FA10BD000070B505000C00FFF761
:104B8000F5FF002834D0002001F000FB002832D0CF
:104B9000FDF7A4F81B4A002312184B41002B19DB28
:104BA000194841F0E1F9002828D0FFF7DFFF00287D
:104BB00004D0002001F0EAFA00280FD101200021E2
:104BC000404201F063F8032464420F4841F054F975
:104BD000200070BD012252420C4BE1E72200290067
:104BE000002001F0DFFA041EEFD103246442ECE759
:104BF00003246442ECE703246442E9E703246442AB
:104C0000E6E7C04640420F00385B0020FFFFFF7F11
:104C1000F0B5C64600B580460C00FDF75FF8314A96
:104C2000002312184B41002B07DB2F4841F09CF961
:104C3000002806D180BCB846F0BD012252422B4B61
:104C4000F3E7FFF793FF002849D1294B002000210B
:104C500018605960244841F00FF9EBE7012000216A
:104C6000404201F013F8002001F0B8FAFFF77EFF90
:104C70000028EFD0002001F033FB002820D0A5420F
:104C8000E8DA661B002001F02BFB0200864200DC04
:104C90003200002AE2D043465919002001F0FCFA04
:104CA000060001200021404200F0F0FF002001F04A
:104CB00095FAAD19FDF712F80D4B18605960DEE753
:104CC000FDF70CF80A4B1E685F680A4A0023921928
:104CD0007B419942BED8D2D19042D0D9BAE70025C3
:104CE000CDE7C04640420F00385B0020FFFFFF7F4A
:104CF000502B002020A10700004870471493041097
:104D000000487047C092041010B50400154B1B7882
:104D1000002B0ED0002C11D1134B144A5A800123C2
:104D200001335B009BB21048C02292001343038002
:104D300010BD0C48112100F025F8EBE7052C0ED82A
:104D40000B4BA400E4580023122BE9D8E15C0029A6
:104D5000E6D00133044A58008152DBB2F4E7002068
:104D6000E6E7C046585B02202C52002009040000F0
:104D7000A892041010B5024800F032F810BDC046E9
:104D80002859002010B5002901D000230AE0104B5B
:104D9000104A11483B31FFF719FA00220DE0373273
:104DA000C25401334A1E9A420ED90F2B0CD85A080E
:104DB0000A4CA45CDA07F0D4042214410F222240EA
:104DC000092AECDC3032EBE7C0180023037010BD79
:104DD0006C6C041028930410746C04102859002083
:104DE00030B589B0040004AD0D2200212800FEF783
:104DF0006FF80D2200216846FEF76AF84B232B70EE
:104E00000D226946280041F02FF8002304E05A1DC6
:104E100069468A5CE2540133072BF8DD09B030BDE6
:104E200070B57F230340C509264C5E0076197601D4
:104E3000A419A0706842684160700020E07021836E
:104E4000E276012D1DD0D8001F4A944660441D4AC9
:104E5000590049194901521890601A4A59004919D4
:104E600049015218926800211160002B0FD1154A98
:104E70005B005B195B01D31800225A60134ADA60A9
:104E800070BDD800124A94466044A060E5E7012D49
:104E90000BD0591EC9000F4A94466144094A5B0071
:104EA0005B195B01D2185160EAE7591EC9000A4A32
:104EB00094466144034A5B005B195B01D218516060
:104EC000DEE7C046645200208400105000011050FC
:104ED000800010500C0010500800105010B5038BCB
:104EE0003F333F229343C27E022A08D008490A6812
:104EF000C260D3180B60074A934202D810BD5B0012
:104F0000F4E7054B054A06485221FFF75FF9C04612
:104F100068560020FF0F1050BC6E041088930410D8
:104F2000006F0410F8B57F250540C6096B009B197A
:104F30005B010E4C1C19FFF773FF002D00D1F8BD6B
:104F40000A4B6D00AD196D015D19298B2000FFF72B
:104F5000C5FFEB7E9B06E968054A4A401343802261
:104F6000120613436A681360E9E7C04664520020E2
:104F70000000105010B504007F202040E4094000DC
:104F800000194001024BC01800F026F910BDC046C0
:104F90006452002010B5002804D101210520FBF740
:104FA00089FE10BD034B044A98210448FF31FFF7E6
:104FB0000DF9C0466C6F041078930410006F041054
:104FC00010B5002805D1002200218020FFF7D2FF74
:104FD00010BD034B034AA2210348FF31FFF7F6F847
:104FE0006C6F041068930410006F0410024B802251
:104FF0005202DA647047C0460020115070B5041E9A
:1050000027D100F0C7F8164D0C23AB671549FF22D6
:105010000520FBF7B1FE144840220021FDF758FFA0
:10502000002240210020FFF77DFF00224021802048
:10503000FFF778FF40F0F0FF01232B6480239B05EE
:10504000EB649023094AEA502000FFF7CFFF0120CC
:1050500070BD074B074A64210748FF31FFF7B6F8D8
:1050600000001150D90600206452002010D0010029
:105070006C6F04109C930410006F0410044B1970A3
:10508000002904D0034A902380218902D15070471F
:10509000E35B0220002011500B785B0602D14B78B5
:1050A000052B00D070478A78014B1A60FAE7C0469A
:1050B0000000115010B5CA789207920F012A0AD049
:1050C00088780B794979090219434905490DFFF799
:1050D00029FF012010BD0020FCE710B540F09CFF27
:1050E00010BD000010B50400080011001A00002CCB
:1050F00003D1FFF73FFF012010BD034B034A81217D
:1051000003488900FFF762F86C6F0410589304108D
:10511000006F041010B57F23180008400B4205D122
:10512000CB09012B0ED00222074B9A66C909400019
:1051300040184001054BC01880221201002140F0A8
:105140004BFF10BD0122EFE70020115064520020F8
:1051500010B57F22100008400A4200D110BDC909D5
:10516000400040184001044BC0180023C3700022C7
:10517000024940F031FFF1E764520020FFF7FFFFE2
:1051800004E00A780270013101301A00531E002A2F
:10519000F7D1704710B580235B040A4A13600A4AAE
:1051A00013600A4B1A6880235B049343F9D1802271
:1051B000520100210648FDF78BFE064B09225A6773
:1051C00010BDC04600E0004000F0004008C00040B4
:1051D000000010500000115070B504000D001600C2
:1051E000837E002B17D1A6820023E3820133A376AE
:1051F0002561200040F0F8FE002804D00C4A9023DE
:1052000080218902D150200040F0FEFE00280AD003
:105210000123237770BD81780648FFF781F92000CC
:1052200040F0CAFEDFE7200040F0A6FEF2E7C046ED
:10523000002011505870041070B50500002408E0DB
:105240009B1A5B01164A9B18DB68280098470134BB
:10525000E4B2144B1A782300511CA1420DDBA24288
:10526000EED9114B1B6862019B18002BECD10F4942
:105270000F48104AFFF754F910E00F4C5422002158
:105280002000FDF725FE201D1022FF21FDF720FE46
:10529000200014302022FF21FDF71AFE70BDC04609
:1052A00018950410E25B022044420020E4940410AC
:1052B0009070041025020000F443002010B5FFF7A1
:1052C000BBFF00F069FE10BD70B505000C001600B4
:1052D000486900F06BFE636932000121280098479D
:1052E00070BD0000F0B5DE4657464E464546E0B577
:1052F00083B082460139C8B2FFF702FD002803D00F
:1053000043789946022B0CD056495748574AFFF725
:1053100007F9002003B0F0BCBB46B246A946A04640
:10532000F0BDC5796C110122514B1440240119784C
:105330001026B14321431970AD112A405201C9B260
:105340002024A1430A431A70060009368278C378E4
:105350001B02134383469B444B460193370066E090
:10536000FB7899463A78BF1868E03E493E48414A82
:10537000FFF7D6F80020CDE7009AD31A5B013E4E26
:105380009E1933692200390050469847082801D9F0
:10539000844216D20135EDB2384B1B7800955A1C69
:1053A000AA423EDBAB42E7D9354B1B686E019E1922
:1053B000002EE6D12B492C48324AFFF7B1F80020E5
:1053C000A8E73400009E00904B46012B11D000202E
:1053D000494681421BD9BB781B18DBB2244AD2183C
:1053E0001279FF2A0CD1224AD3181D710130C0B2A4
:1053F000EFE72169244A9142E9D1019B9946E6E70A
:1054000018491948214AFFF78BF8002082E7204805
:105410002B00009C2200390001F082FCA446674466
:1054200000E02E00154B1B7801339E420FDC5F45D8
:1054300015D27B780B2B93D0012399467A78042AD6
:1054400093D15B46DA1B93B200251C00A4E78522AA
:1054500004490548D200FFF763F800205AE701200D
:1054600058E7C046B894041090700410D6030000AA
:10547000F4430020F103000018950410E25B0220C1
:1054800044420020FA0300005D640010190400008B
:105490000844002070477047002070470020704784
:1054A00070B505000C00CB7888780F2B53D89A0084
:1054B0002E498A589746FFF71FFC021E05D012237B
:1054C0002100280000F01CFD46E0294929482A4A0D
:1054D000FFF726F800203FE0FFF7A0F9021E3CD0BE
:1054E0008178C3781B020B432100280000F008FDDF
:1054F00032E0022B0CD0FFF7D1FF021E2FD09178A3
:10550000D3781B020B432100280000F0F9FC23E0B4
:10551000FFF7F6FB021EF2D115491648174AFEF7AF
:10552000FFFF002018E02379617909021943FFF792
:10553000EBFB021E15D003782100280000F0E0FCF0
:105540000AE0FFF7A9FF021E0DD003782100280012
:1055500000F0D6FC00E0002070BD0020FCE7002039
:10556000FAE70020F8E70020F6E7C046B8930410F9
:10557000A0940410907004103A040000610400002C
:105580007047704770477047024B5878431E9841E8
:10559000C0B27047F4430020024B18784007C00F98
:1055A0007047C046F4430020034B1878FF38431E71
:1055B0009841C0B27047C046DC1E0020F8B5050017
:1055C0000F00FFF7F1FF061E48D1002F21D02E4813
:1055D00054220021FDF77CFC2C4B00221A702C4C2D
:1055E0002000FBF763FE2B4B1C602B4C2000FBF7CD
:1055F000ABFE143C200001F02AFF284B1C60284B16
:10560000002B04D02748FFF729F9274B1860002406
:1056100010E0E922254926485200FEF781FF1DE0EF
:105620009B1A5B01234A9B185B68002B10D098479C
:105630000134E4B21B4B1A782300511CA1420FDB4A
:10564000A242EDD9184B1B6862019B18002BEBD1CD
:10565000F822164916485200FEF762FF3000F8BDE6
:10566000154B1D7039002800FFF7C8FC061E03D03B
:105670002800FFF78FFCF1E7FC220C490C48520090
:10568000FEF74EFFEAE7C046F4430020E45B022049
:10569000EC43002048440020D41E00204C4400204D
:1056A0005D480010E25B022044420020089504108F
:1056B0009070041018950410DC1E002070B50D00C9
:1056C000104B1E788B7870221A420DD10E4B9978B0
:1056D000280001F0CFFA041E0DD029003000FFF79A
:1056E000E9FC0400200070BD08490948094AFEF79A
:1056F00017FF0024F6E705490548074AFEF710FFA3
:10570000F0E7C046DC1E0020F44300207094041033
:10571000907004100B0500000C050000F0B5D64693
:105720004F464646C0B581460C0017009846089B78
:105730009A46002517E018491848194AFEF7F0FE66
:1057400000263000E0BCBA46B146A846F0BD9D2216
:1057500011491248D200FEF7E3FEF2E7099A1370EE
:105760002378E4180135AF4214DD6378052BE2D1CC
:10577000E1788907890F4145DDD121004846FFF7CF
:105780009DFF061EE3D0A378DA09012AE6D052462F
:105790001370E5E70126D4E780940410907004109C
:1057A000E704000010B57F200840C90940004018F8
:1057B0003030044BC0180430034B196801F016FA5E
:1057C00010BDC046F44300204844002010B57F209F
:1057D0000840C909400040183030044BC01804305C
:1057E000034B196801F02AFA10BDC046F4430020AB
:1057F00048440020F0B5C64600B582B001931A486F
:1058000000787F250D40CE09184C6F00E419A419CB
:1058100030342479E4071DD4144C6F00E419A41922
:10582000303423790127BC4667463B432371019BF3
:10583000FFF758FC002813D10C4B6D005B199B1926
:1058400030331A7901218A431A711A7903318A4354
:105850001A7105E006490748074AFEF761FE002075
:1058600002B080BCB846F0BDDC1E0020F44300202E
:1058700060940410907004103905000070B50A4B54
:1058800018787F240C40CD09FFF744FC074A6400D8
:1058900013195B1930331A7902210A431A711A79E4
:1058A00001210A431A7170BDDC1E0020F443002060
:1058B00070B50A4B18787F240C40CD09FFF748FCDF
:1058C000074A640013195B1930331A7902218A439D
:1058D0001A711A7901398A431A7170BDDC1E0020D1
:1058E000F44300207F220A40C909044B52009B1850
:1058F0005B18303318798007C00F7047F4430020DD
:10590000F0B5C64600B582B005000C00002000F0DE
:105910004DFB237860221A40602A1AD0402A20D0FA
:105920002378DB06DB0E012B00D1D7E0022B00D160
:1059300017E1002B00D07DE1202A1CD0002A00D0E6
:1059400082E16378092B00D980E19B00C64AD358D5
:105950009F465532C549C6489200FEF7E1FD002634
:1059600069E1C44800F022FB220001212800FEF773
:1059700059FF06005FE123790F2B00D960E1BE4A91
:10598000D3181B79BD4A1278934207D2BC4A1168DA
:105990005B01C918002909D100264CE1511C99422C
:1059A00000DA4FE19B1A5B01B64959182200280022
:1059B000FFF78AFC06003EE1200000F0FDFAA17826
:1059C0002800FFF7FDFAAC4A137802210B4313704D
:1059D000012630E1A84B5B786A460632137001233A
:1059E0002100280000F08CFA012624E1A678A24BC1
:1059F0005B78DBB2B3422CD09F4B5B78002B0CD191
:105A00009D4B5E70002E22D031002800FFF76AFC0B
:105A1000061E12D0FFF7B4FD1BE000212800FFF79F
:105A20002DFB2800FFF759FB934FBB7898462800C1
:105A3000FFF702FC4346BB70E2E7C9228B498C4862
:105A40009200FEF76DFD8C4B00225A70F3E0FFF7D9
:105A500098FD2100280000F03FFA0126EBE021002C
:105A60002800FFF71DFD0600E5E0A278E3781B02A1
:105A70001343012B01D00026DDE07F4A1378082173
:105A80000B4313702100280000F026FA0126D2E013
:105A9000A278E3781B021343012B01D00026CAE051
:105AA000754A137808218B4313702100280000F0F9
:105AB00013FA0126BFE0704B1A78510992080123AE
:105AC0000B4002210A4013436A4606321380022328
:105AD0002100280000F014FA0126ACE023790F2BF6
